{
  "contractName": "StudentDetails",
  "abi": [
    {
      "inputs": [],
      "name": "studentCount",
      "outputs": [
        {
          "internalType": "uint256",
          "name": "",
          "type": "uint256"
        }
      ],
      "stateMutability": "view",
      "type": "function"
    },
    {
      "inputs": [
        {
          "internalType": "uint256",
          "name": "",
          "type": "uint256"
        }
      ],
      "name": "students",
      "outputs": [
        {
          "internalType": "uint256",
          "name": "Id",
          "type": "uint256"
        },
        {
          "internalType": "string",
          "name": "Name",
          "type": "string"
        },
        {
          "internalType": "string",
          "name": "Regno",
          "type": "string"
        },
        {
          "internalType": "string",
          "name": "Dept",
          "type": "string"
        },
        {
          "internalType": "string",
          "name": "Course",
          "type": "string"
        },
        {
          "internalType": "string",
          "name": "Suspension",
          "type": "string"
        },
        {
          "internalType": "string",
          "name": "Image",
          "type": "string"
        }
      ],
      "stateMutability": "view",
      "type": "function"
    },
    {
      "inputs": [
        {
          "internalType": "string",
          "name": "_Name",
          "type": "string"
        },
        {
          "internalType": "string",
          "name": "_Regno",
          "type": "string"
        },
        {
          "internalType": "string",
          "name": "_Dept",
          "type": "string"
        },
        {
          "internalType": "string",
          "name": "_Course",
          "type": "string"
        },
        {
          "internalType": "string",
          "name": "_Suspension",
          "type": "string"
        },
        {
          "internalType": "string",
          "name": "_Image",
          "type": "string"
        }
      ],
      "name": "addStudent",
      "outputs": [],
      "stateMutability": "nonpayable",
      "type": "function"
    },
    {
      "inputs": [
        {
          "internalType": "uint256",
          "name": "_index",
          "type": "uint256"
        }
      ],
      "name": "getAllStudents",
      "outputs": [
        {
          "internalType": "string",
          "name": "",
          "type": "string"
        },
        {
          "internalType": "string",
          "name": "",
          "type": "string"
        },
        {
          "internalType": "string",
          "name": "",
          "type": "string"
        },
        {
          "internalType": "string",
          "name": "",
          "type": "string"
        },
        {
          "internalType": "string",
          "name": "",
          "type": "string"
        },
        {
          "internalType": "string",
          "name": "",
          "type": "string"
        }
      ],
      "stateMutability": "view",
      "type": "function"
    }
  ],
  "bytecode": "0x60806040526000805534801561001457600080fd5b50611093806100246000396000f3fe608060405234801561001057600080fd5b506004361061004c5760003560e01c806306ead22e146100515780636744556014610087578063a11d211b146100bc578063e581f9ee146100d8575b600080fd5b61006b60048036038101906100669190610b08565b6100f6565b60405161007e9796959493929190610bdd565b60405180910390f35b6100a1600480360381019061009c9190610b08565b610468565b6040516100b396959493929190610c76565b60405180910390f35b6100d660048036038101906100d19190610e36565b610852565b005b6100e0610a15565b6040516100ed9190610f6b565b60405180910390f35b600160205280600052604060002060009150905080600001549080600101805461011f90610fb5565b80601f016020809104026020016040519081016040528092919081815260200182805461014b90610fb5565b80156101985780601f1061016d57610100808354040283529160200191610198565b820191906000526020600020905b81548152906001019060200180831161017b57829003601f168201915b5050505050908060020180546101ad90610fb5565b80601f01602080910402602001604051908101604052809291908181526020018280546101d990610fb5565b80156102265780601f106101fb57610100808354040283529160200191610226565b820191906000526020600020905b81548152906001019060200180831161020957829003601f168201915b50505050509080600301805461023b90610fb5565b80601f016020809104026020016040519081016040528092919081815260200182805461026790610fb5565b80156102b45780601f10610289576101008083540402835291602001916102b4565b820191906000526020600020905b81548152906001019060200180831161029757829003601f168201915b5050505050908060040180546102c990610fb5565b80601f01602080910402602001604051908101604052809291908181526020018280546102f590610fb5565b80156103425780601f1061031757610100808354040283529160200191610342565b820191906000526020600020905b81548152906001019060200180831161032557829003601f168201915b50505050509080600501805461035790610fb5565b80601f016020809104026020016040519081016040528092919081815260200182805461038390610fb5565b80156103d05780601f106103a5576101008083540402835291602001916103d0565b820191906000526020600020905b8154815290600101906020018083116103b357829003601f168201915b5050505050908060060180546103e590610fb5565b80601f016020809104026020016040519081016040528092919081815260200182805461041190610fb5565b801561045e5780601f106104335761010080835404028352916020019161045e565b820191906000526020600020905b81548152906001019060200180831161044157829003601f168201915b5050505050905087565b6060806060806060806001600088815260200190815260200160002060010160016000898152602001908152602001600020600201600160008a8152602001908152602001600020600301600160008b8152602001908152602001600020600401600160008c8152602001908152602001600020600501600160008d815260200190815260200160002060060185805461050190610fb5565b80601f016020809104026020016040519081016040528092919081815260200182805461052d90610fb5565b801561057a5780601f1061054f5761010080835404028352916020019161057a565b820191906000526020600020905b81548152906001019060200180831161055d57829003601f168201915b5050505050955084805461058d90610fb5565b80601f01602080910402602001604051908101604052809291908181526020018280546105b990610fb5565b80156106065780601f106105db57610100808354040283529160200191610606565b820191906000526020600020905b8154815290600101906020018083116105e957829003601f168201915b5050505050945083805461061990610fb5565b80601f016020809104026020016040519081016040528092919081815260200182805461064590610fb5565b80156106925780601f1061066757610100808354040283529160200191610692565b820191906000526020600020905b81548152906001019060200180831161067557829003601f168201915b505050505093508280546106a590610fb5565b80601f01602080910402602001604051908101604052809291908181526020018280546106d190610fb5565b801561071e5780601f106106f35761010080835404028352916020019161071e565b820191906000526020600020905b81548152906001019060200180831161070157829003601f168201915b5050505050925081805461073190610fb5565b80601f016020809104026020016040519081016040528092919081815260200182805461075d90610fb5565b80156107aa5780601f1061077f576101008083540402835291602001916107aa565b820191906000526020600020905b81548152906001019060200180831161078d57829003601f168201915b505050505091508080546107bd90610fb5565b80601f01602080910402602001604051908101604052809291908181526020018280546107e990610fb5565b80156108365780601f1061080b57610100808354040283529160200191610836565b820191906000526020600020905b81548152906001019060200180831161081957829003601f168201915b5050505050905095509550955095509550955091939550919395565b600086511161086057600080fd5b600085511161086e57600080fd5b600084511161087c57600080fd5b600083511161088a57600080fd5b600082511161089857600080fd5b60008151116108a657600080fd5b600086511180156108b8575060008551115b80156108c5575060008451115b80156108d2575060008351115b80156108df575060008251115b80156108ec575060008151115b15610a0d5760008081548092919061090390611015565b91905055506040518060e001604052806000548152602001878152602001868152602001858152602001848152602001838152602001828152506001600080548152602001908152602001600020600082015181600001556020820151816001019080519060200190610977929190610a1b565b506040820151816002019080519060200190610994929190610a1b565b5060608201518160030190805190602001906109b1929190610a1b565b5060808201518160040190805190602001906109ce929190610a1b565b5060a08201518160050190805190602001906109eb929190610a1b565b5060c0820151816006019080519060200190610a08929190610a1b565b509050505b505050505050565b60005481565b828054610a2790610fb5565b90600052602060002090601f016020900481019282610a495760008555610a90565b82601f10610a6257805160ff1916838001178555610a90565b82800160010185558215610a90579182015b82811115610a8f578251825591602001919060010190610a74565b5b509050610a9d9190610aa1565b5090565b5b80821115610aba576000816000905550600101610aa2565b5090565b6000604051905090565b600080fd5b600080fd5b6000819050919050565b610ae581610ad2565b8114610af057600080fd5b50565b600081359050610b0281610adc565b92915050565b600060208284031215610b1e57610b1d610ac8565b5b6000610b2c84828501610af3565b91505092915050565b610b3e81610ad2565b82525050565b600081519050919050565b600082825260208201905092915050565b60005b83811015610b7e578082015181840152602081019050610b63565b83811115610b8d576000848401525b50505050565b6000601f19601f8301169050919050565b6000610baf82610b44565b610bb98185610b4f565b9350610bc9818560208601610b60565b610bd281610b93565b840191505092915050565b600060e082019050610bf2600083018a610b35565b8181036020830152610c048189610ba4565b90508181036040830152610c188188610ba4565b90508181036060830152610c2c8187610ba4565b90508181036080830152610c408186610ba4565b905081810360a0830152610c548185610ba4565b905081810360c0830152610c688184610ba4565b905098975050505050505050565b600060c0820190508181036000830152610c908189610ba4565b90508181036020830152610ca48188610ba4565b90508181036040830152610cb88187610ba4565b90508181036060830152610ccc8186610ba4565b90508181036080830152610ce08185610ba4565b905081810360a0830152610cf48184610ba4565b9050979650505050505050565b600080fd5b600080fd5b7f4e487b7100000000000000000000000000000000000000000000000000000000600052604160045260246000fd5b610d4382610b93565b810181811067ffffffffffffffff82111715610d6257610d61610d0b565b5b80604052505050565b6000610d75610abe565b9050610d818282610d3a565b919050565b600067ffffffffffffffff821115610da157610da0610d0b565b5b610daa82610b93565b9050602081019050919050565b82818337600083830152505050565b6000610dd9610dd484610d86565b610d6b565b905082815260208101848484011115610df557610df4610d06565b5b610e00848285610db7565b509392505050565b600082601f830112610e1d57610e1c610d01565b5b8135610e2d848260208601610dc6565b91505092915050565b60008060008060008060c08789031215610e5357610e52610ac8565b5b600087013567ffffffffffffffff811115610e7157610e70610acd565b5b610e7d89828a01610e08565b965050602087013567ffffffffffffffff811115610e9e57610e9d610acd565b5b610eaa89828a01610e08565b955050604087013567ffffffffffffffff811115610ecb57610eca610acd565b5b610ed789828a01610e08565b945050606087013567ffffffffffffffff811115610ef857610ef7610acd565b5b610f0489828a01610e08565b935050608087013567ffffffffffffffff811115610f2557610f24610acd565b5b610f3189828a01610e08565b92505060a087013567ffffffffffffffff811115610f5257610f51610acd565b5b610f5e89828a01610e08565b9150509295509295509295565b6000602082019050610f806000830184610b35565b92915050565b7f4e487b7100000000000000000000000000000000000000000000000000000000600052602260045260246000fd5b60006002820490506001821680610fcd57607f821691505b602082108103610fe057610fdf610f86565b5b50919050565b7f4e487b7100000000000000000000000000000000000000000000000000000000600052601160045260246000fd5b600061102082610ad2565b91507fffffffffffffffffffffffffffffffffffffffffffffffffffffffffffffffff820361105257611051610fe6565b5b60018201905091905056fea2646970667358221220ae1fecc5009838a71b3905a14ea77764e10972f8bba2cdf9700661599dc39e8364736f6c634300080d0033",
  "immutableReferences": {},
  "source": "pragma solidity ^0.8.13;\r\n\r\ncontract StudentDetails {\r\n    \r\n    uint public studentCount = 0;\r\n    mapping(uint => Student) public students;\r\n    struct Student {\r\n        uint Id;\r\n        string Name;\r\n        string Regno;\r\n        string Dept;\r\n        string Course;\r\n        string Suspension;\r\n        string Image;\r\n    }\r\n    function addStudent(string memory _Name, string memory _Regno, string memory _Dept, string memory _Course, string memory _Suspension, string memory _Image) public {\r\n        \r\n        // Set parameters as required\r\n        require(bytes(_Name).length > 0);\r\n        require(bytes(_Regno).length > 0);\r\n        require(bytes(_Dept).length > 0);\r\n        require(bytes(_Course).length > 0);\r\n        require(bytes(_Suspension).length > 0);\r\n        require(bytes(_Image).length > 0);\r\n        \r\n        \r\n        // Check if requirements satisfied\r\n        if (bytes(_Name).length > 0 && bytes(_Regno).length > 0 && bytes(_Dept).length > 0 && bytes(_Course).length > 0 && bytes(_Suspension).length > 0 && bytes(_Image).length > 0) {\r\n            studentCount++;\r\n            students[studentCount] = Student(studentCount, _Name, _Regno, _Dept, _Course, _Suspension, _Image);\r\n        }\r\n    }\r\n    function getAllStudents(uint _index) public view returns (string memory, string memory, string memory, string memory, string memory, string memory) {\r\n        return (students[_index].Name, students[_index].Regno, students[_index].Dept, students[_index].Course, students[_index].Suspension, students[_index].Image);\r\n    } \r\n}",
  "sourcePath": "C:\\Users\\BINI C O\\PycharmProjects\\Election\\node_modules\\.bin\\contracts\\2StudentDetails.sol",
  "compiler": {
    "name": "solc",
    "version": "0.8.13+commit.abaa5c0e.Emscripten.clang"
  },
  "schemaVersion": "3.4.6",
  "updatedAt": "2022-04-02T04:26:31.449Z",
  "devdoc": {
    "kind": "dev",
    "methods": {},
    "version": 1
  },
  "userdoc": {
    "kind": "user",
    "methods": {},
    "version": 1
  }
}